:100000000C9434000C9451000C9451000C94510049
:100010000C9451000C9451000C9451000C94290440
:100020000C9451000C9451000C9451000C9451000C
:100030000C9451000C9451000C94B9010C94510093
:100040000C9451000C9451000C9451000C945100EC
:100050000C9451000C9451000C9451000C945100DC
:100060000C9451000C94510011241FBECFEFD8E026
:10007000DEBFCDBF11E0A0E0B1E0ECE6F4E102C0EC
:1000800005900D92A035B107D9F722E0A0E5B1E0C7
:1000900001C01D92A53AB207E1F70E9453000C94EB
:1000A000340A0C9400000E94A1068BE290E0909329
:1000B0004C0280934B022AE230E030934A022093B4
:1000C000490225E02093460224E02093480226E0DE
:1000D00020934702909355028093540283E08093CB
:1000E000560289E290E0909353028093520286E494
:1000F00092E00E94760100EB14E020E030E046E25E
:1001000052E060E070E086E492E00E94F10086E553
:1001100091E00E94D00680915601813069F08230D2
:10012000A1F08111F4CF80915901813081F786E4EB
:1001300092E00E946A01EBCF80915901813039F73A
:1001400086E492E00E947001E2CF809159018130F3
:10015000F1F6C0905A010C2C000CDD08EE08FF08E7
:10016000C8E1D1E0FF92EF92DF92CF92DF93CF937D
:100170000E94A9070F900F900F900F900F900F9073
:10018000F1CFFC0141110BC0208181E090E001C062
:10019000880F6A95EAF7809582238083089541301D
:1001A000E9F7808121E030E001C0220F6A95EAF78B
:1001B000822BF3CFFC01808121E030E001C0220FCF
:1001C0006A95EAF7822B80830895FC01208181E003
:1001D00090E001C0880F6A95EAF7809582238083BA
:1001E0000895CF92DF92EF92FF920F931F93FC013D
:1001F0006A017B01C801D90120918002211131C01F
:1002000021E0209380021386C0928902D0928A0254
:10021000E0928B02F0928C0280938D0290938E027A
:10022000A0938F02B09390021092A1021092A202AA
:100230001092A3021092A402F0937F02E0937E0238
:100240008AE084BD85E085BD82E080936E008FE00A
:1002500087BD78941F910F91FF90EF90DF90CF9022
:1002600008952091590221112CC021E020935902B8
:100270002387C0926202D0926302E0926402F092FD
:1002800065028093660290936702A0936802B09320
:10029000690210927A0210927B0210927C021092F4
:1002A0007D02F0935802E093570282E08093B00001
:1002B00097E09093B100809370008FE08093B3003B
:1002C000C8CF60915401709155018DE191E00E9479
:1002D0007F07BFCFFC016281858196810C94DA0093
:1002E000FC016281858196810C94E500CF93DF93B8
:1002F000EC011F82188619861A868FEF8B8741E0E2
:1003000068818B819C810E94C10041E06A818B8160
:100310009C810E94C10041E069818B819C810E9487
:10032000C10040E068898E859F850E94C10041E040
:100330006A818B819C810E94C10069818D819E812F
:100340000E94DA00CE01DF91CF910C947001FC0184
:10035000CB016130710529F46081858196810C940F
:10036000DA00892B29F46081858196810C94E5005F
:1003700008951F920F920FB60F921124AF92BF9261
:10038000CF92DF92EF92FF920F931F932F933F93A1
:100390004F935F936F937F938F939F93AF93BF938D
:1003A000CF93DF93EF93FF9380917E0290917F0232
:1003B000009709F406C1FC0107811085218532856B
:1003C0004091A1025091A2026091A3027091A402F7
:1003D000041715072607370709F04FC1409106019A
:1003E0005091070160910801709109014F3F5F4FE3
:1003F0006F4F7F4F09F429C1FC01078110852185CA
:100400003285409106015091070160910801709179
:100410000901041715072607370708F0EDC01092E9
:1004200084021092830260918302709184020E9480
:10043000A701E0917E02F0917F024781508561859E
:1004400072858091060190910701A0910801B091F9
:100450000901481759076A077B0708F0D4C0809143
:10046000060190910701A0910801B091090147810F
:10047000508561857285841B950BA60BB70B809305
:100480009D0290939E02A0939F02B093A002809140
:100490009D0290919E02A0919F02B091A002B695FC
:1004A000A795979587958093950290939602A09330
:1004B0009702B093980240918D0250918E02609104
:1004C0008F02709190028091890290918A02A0918E
:1004D0008B02B0918C02481B590B6A0B7B0B7695F3
:1004E0006795579547954093910250939202609378
:1004F0009302709394024091910250919202609104
:1005000093027091940280919D0290919E02A0911D
:100510009F02B091A00284179507A607B70708F0BD
:100520007FC08091950290919602A0919702B09120
:1005300098028093910290939202A0939302B093B9
:1005400094021092990210929A0210929B021092B9
:100550009C028091060190910701A0910801B09141
:1005600009018093A1029093A202A093A302B093E9
:10057000A4028FEF9FEFDC018093060190930701A7
:10058000A0930801B0930901109282021092810297
:100590008091890290918A02A0918B02B0918C0285
:1005A0008093850290938602A0938702B09388027D
:1005B00080910501882329F0CF010E946A011092E1
:1005C0000501FF91EF91DF91CF91BF91AF919F9185
:1005D0008F917F916F915F914F913F912F911F91DB
:1005E0000F91FF90EF90DF90CF90BF90AF900F9062
:1005F0000FBE0F901F90189521E030E030938402D9
:100600002093830210CF87819085A185B285409188
:1006100006015091070160910801709109012BCFEB
:1006200080919D0290919E02A0919F02B091A002A4
:1006300040919102509192026091930270919402C4
:10064000841B950BA60BB70B74CF209181023091C0
:1006500082022F5F3F4F3093820220938102213A22
:100660003F4008F4AECF209105012111AACF0E948E
:10067000700181E080930501A4CF80918502909163
:100680008602A0918702B09188025C016D01E12C85
:10069000F12C00E010E029E03DE340E050E060E0B4
:1006A00070E080E090E00E94EB0627BDE0917E02C2
:1006B000F0917F026181858196810E94E50025E0AD
:1006C0002A95F1F70000E0917E02F0917F026181AE
:1006D000858196810E94DA004091850250918602C0
:1006E000609187027091880280918D0290918E02B4
:1006F000A0918F02B091900284179507A607B707C3
:1007000008F452C04091990250919A0260919B0264
:1007100070919C028091950290919602A09197020F
:10072000B0919802481759076A077B07E8F580914E
:10073000850290918602A0918702B091880202966C
:10074000A11DB11D8093850290938602A09387021C
:10075000B09388028091830290918402E0917E029E
:10076000F0917F02892B09F06CC087819085A1856B
:10077000B2850196A11DB11D87839087A187B2879D
:100780008091990290919A02A0919B02B0919C0253
:100790000196A11DB11D8093990290939A02A09396
:1007A0009B02B0939C020DCF40918502509186022E
:1007B00060918702709188028091890290918A02EB
:1007C000A0918B02B0918C0284179507A607B707FA
:1007D00008F64091990250919A0260919B027091A3
:1007E0009C028091950290919602A0919702B091FF
:1007F000980284179507A607B70708F0ABCF40917A
:10080000990250919A0260919B0270919C02809192
:10081000910290919202A0919302B0919402481794
:1008200059076A077B0708F495CF8091850290915C
:100830008602A0918702B09188020297A109B109AE
:1008400081CF87819085A185B2850197A109B109E2
:1008500093CF1F920F920FB60F921124AF92BF92B7
:10086000CF92DF92EF92FF920F931F932F933F93BC
:100870004F935F936F937F938F939F93AF93BF93A8
:10088000CF93DF93EF93FF9380915702909158029B
:10089000009709F406C1FC01078110852185328586
:1008A00040917A0250917B0260917C0270917D02AE
:1008B000041715072607370709F04FC140910101BA
:1008C0005091020160910301709104014F3F5F4F0D
:1008D0006F4F7F4F09F429C1FC01078110852185E5
:1008E00032854091010150910201609103017091A4
:1008F0000401041715072607370708F0EDC010920A
:100900005D0210925C0260915C0270915D020E9437
:10091000A701E0915702F091580247815085618507
:1009200072858091010190910201A0910301B09123
:100930000401481759076A077B0708F0D4C0809163
:10094000010190910201A0910301B091040147813E
:10095000508561857285841B950BA60BB70B809320
:10096000760290937702A0937802B09379028091F7
:10097000760290917702A0917802B0917902B695B3
:10098000A7959795879580936E0290936F02A09399
:100990007002B093710240916602509167026091BB
:1009A0006802709169028091620290916302A09145
:1009B0006402B0916502481B590B6A0B7B0B76955C
:1009C00067955795479540936A0250936B026093E1
:1009D0006C0270936D0240916A0250916B026091BB
:1009E0006C0270916D028091760290917702A091D5
:1009F0007802B091790284179507A607B70708F027
:100A00007FC080916E0290916F02A0917002B091B0
:100A1000710280936A0290936B02A0936C02B09370
:100A20006D02109272021092730210927402109270
:100A300075028091010190910201A0910301B09192
:100A4000040180937A0290937B02A0937C02B0937E
:100A50007D028FEF9FEFDC018093010190930201F3
:100A6000A0930301B093040110925B0210925A020A
:100A70008091620290916302A0916402B09165023C
:100A800080935E0290935F02A0936002B093610234
:100A900080910001882329F0CF010E946A01109201
:100AA0000001FF91EF91DF91CF91BF91AF919F91A5
:100AB0008F917F916F915F914F913F912F911F91F6
:100AC0000F91FF90EF90DF90CF90BF90AF900F907D
:100AD0000FBE0F901F90189521E030E030935D021B
:100AE00020935C0210CF87819085A185B2854091CB
:100AF00001015091020160910301709104012BCF1B
:100B00008091760290917702A0917802B09179025B
:100B100040916A0250916B0260916C0270916D027B
:100B2000841B950BA60BB70B74CF20915A02309102
:100B30005B022F5F3F4F30935B0220935A02213AB2
:100B40003F4008F4AECF209100012111AACF0E94AE
:100B5000700181E080930001A4CF80915E029091AA
:100B60005F02A0916002B09161025C016D01E12C15
:100B7000F12C00E010E029E03DE340E050E060E0CF
:100B800070E080E090E00E94EB062093B300E091DB
:100B90005702F09158026181858196810E94E5009B
:100BA00025E02A95F1F70000E0915702F0915802F4
:100BB0006181858196810E94DA0040915E025091A8
:100BC0005F02609160027091610280916602909173
:100BD0006702A0916802B091690284179507A60781
:100BE000B70708F452C040917202509173026091AD
:100BF00074027091750280916E0290916F02A091C3
:100C00007002B0917102481759076A077B07E8F52F
:100C100080915E0290915F02A0916002B0916102AA
:100C20000296A11DB11D80935E0290935F02A09376
:100C30006002B093610280915C0290915D02E0914C
:100C40005702F0915802892B09F06CC0878190857A
:100C5000A185B2850196A11DB11D87839087A187CB
:100C6000B2878091720290917302A0917402B09148
:100C700075020196A11DB11D8093720290937302BB
:100C8000A0937402B09375020CCF40915E02509114
:100C90005F026091600270916102809162029091A6
:100CA0006302A0916402B091650284179507A607BC
:100CB000B70708F640917202509173026091740276
:100CC0007091750280916E0290916F02A0917002F6
:100CD000B091710284179507A607B70708F0ABCF4C
:100CE000409172025091730260917402709175028A
:100CF00080916A0290916B02A0916C02B0916D029A
:100D0000481759076A077B0708F495CF80915E0260
:100D100090915F02A0916002B09161020297A109D7
:100D2000B10981CF87819085A185B2850197A109FD
:100D3000B10993CF9091C00095FFFCCF8093C6007E
:100D4000089587E68093C4001092C5001092C000F9
:100D500088E18093C10086E08093C200E0E5F1E085
:100D60008AE091E095838483938382839183808357
:100D700008958091C00087FFFCCF8091C600089540
:100D8000CF930E94B906C82F833B39F00E94B90661
:100D900020E1829FC0011124C82B8C2FCF91089590
:100DA0000F931F93CF93DF938C010E94B906833B6F
:100DB000E1F7E80100511F4F0E94C006833B21F07C
:100DC0008993C017D107C1F7DF91CF911F910F9180
:100DD0000895689401C0E8948F929F92CF93DF9317
:100DE0000E94F706DF91CF919F908F9008958824FD
:100DF0009924F401E401B0E49F93AA279A158B0487
:100E00009C04ED05FE05CF05D007A10798F4AD2F92
:100E1000DC2FCF2FFE2FE92D982C892E982F872F8E
:100E2000762F652F542F432F322F2227B85031F7BA
:100E3000BF9127C01B2EBF91BB27220F331F441F1A
:100E4000551F661F771F881F991F881C991CEE1F4E
:100E5000FF1FCC1FDD1FAA1FBB1F8A149B04EC05BC
:100E6000FD05CE05DF05A007B10748F08A189B08ED
:100E7000EC09FD09CE09DF09A00BB10B21601A9422
:100E8000E1F62EF49401AF01BE01CD01000C0895EE
:100E90002F923F924F925F926F927F928F929F928A
:100EA000AF92BF92CF92DF92EF92FF920F931F9378
:100EB000CF93DF93CDB7DEB7CA1BDB0B0FB6F89429
:100EC000DEBF0FBECDBF09942A88398848885F8469
:100ED0006E847D848C849B84AA84B984C884DF80DA
:100EE000EE80FD800C811B81AA81B981CE0FD11DBE
:100EF0000FB6F894DEBF0FBECDBFED010895EF929F
:100F0000FF920F931F93CF93DF938B01DB01139617
:100F10002C91E12CF12C21FD12C0EE24EA94FF2447
:100F2000FA9411C0D8011896ED91FC91B801099579
:100F3000892B21F0EE24EA94FF24FA94CE01EC01EF
:100F400089918111EFCFC701CDB7DEB7E6E00C94F0
:100F50007007B0E0A0E0EFEAF7E00C945807FE015C
:100F6000359661917191AF01809152019091530139
:100F70000E94BD07E2E00C947407AFE0B0E0E3EC40
:100F8000F7E00C9448077C013B018A01DC011796CD
:100F90001C921E92169713968C9181FFBEC19AE007
:100FA000292EFE0131964F01D70113969C91F30132
:100FB00093FD859193FF81913F01882309F444C1FA
:100FC000853239F493FD859193FF81913F018532FC
:100FD00029F4B70190E00E94A609E6CFB12C412C7C
:100FE000512CBFE1B51538F08B3209F188F480320D
:100FF00001F1833221F157FC3AC020ED280F2A304D
:1010000040F556FE1FC0B29C200D1124B22E06C022
:101010008D3291F0803379F7689450F8F30193FDA5
:10102000859193FF81913F018111DBCF20C06894AE
:1010300051F8689452F8F2CF689453F8EFCF68945F
:1010400054F8ECCF429C200D1124422E689455F8A0
:10105000E5CF8E3229F456FCF7C0689456F8DECFFF
:101060008C3619F4689457F8D9CF8836B9F2982F8E
:101070009F7D95549330C0F08336A1F18337C1F141
:10108000833509F05BC0D801CD90DD908D016B2DCB
:1010900070E056FC02C06FEF7FEFC6010E9490091E
:1010A0005C01689457F80AC00C5F1F4FEFE3E983B7
:1010B000AA24A394B12C6401E89457F853FC04C00B
:1010C0004A141B0409F018F5342CA114B10431F5AD
:1010D000332009F469CFB70180E290E00E94A609AD
:1010E0003A94F6CFD8018C9189830E5F1F4FE0CFE1
:1010F000F801C190D1908F016B2D70E056FC02C0B9
:101100006FEF7FEFC6010E949B095C01D5CFB7014D
:1011100080E290E00E94A6094A94D2CFF60157FCE3
:10112000859157FE81916F01B70190E00E94A60959
:1011300031103A94B1E0AB1AB108C7CF843619F038
:10114000893609F071C0F80157FE67C0619171914D
:10115000819191918F01E52DEF76DE2E97FF09C0E9
:1011600090958095709561957F4F8F4F9F4F6894B4
:10117000D7F82AE030E0A4010E94D609C82EC8188A
:10118000AC2C5D2CD6FE0CC0E89450F8CB1440F487
:10119000D4FE05C0D2FC03C05D2D5E7E552EAB2C67
:1011A00054FE93C0FE01EC0DF11D8081803309F0E7
:1011B00085C0652D697E562E752D7870372E53FCAF
:1011C00093C050FE8DC0BC2CA41410F4B40CBA18FB
:1011D00054FE90C0B70180E390E00E94A60952FE41
:1011E00007C088E751FC88E590E0B7010E94A60996
:1011F000CB1408F48BC0CA94D12C8FEFC81AD80A2C
:10120000C80CD91CD6018E916D01B70190E00E94E7
:10121000A6098C149D04B1F75BCF61917191072EE3
:10122000000C880B990B96CFD52CE894D4F82AE0C3
:10123000853729F1F52DF97FDF2E8037A1F058F49D
:101240008835A1F08F36D1F0F701868197812F96EE
:10125000E2E10C9464078837B9F7D4FE02C06894C1
:10126000D2F820E10CC06894D4F8F7CF54FE03C044
:101270002F2F2660D22E20E132E002C028E030E09D
:10128000F801D7FE15C041915191619171914C8740
:101290005D876E877F878F01A4016C857D858E8534
:1012A0009F850E94D609C82EC818E894D7F868CF41
:1012B00081919191AC0170E060E0E9CF52FC02C0F5
:1012C000A3947ACFA394A39477CF852D867809F43D
:1012D00073CFF6CFB70180E290E00E94A609A394F5
:1012E000A414C0F3312C74CF342C3A18A41408F48D
:1012F0006FCFF8CF852D867809F47ACF8BE251FE37
:1013000080E257FC8DE2B70190E070CFB70180E337
:1013100090E00E94A609BA946BCF8FEF9FEF97CF12
:10132000FC010590615070400110D8F780959095B0
:101330008E0F9F1F0895FC016150704001900110B5
:10134000D8F7809590958E0F9F1F08950F931F9348
:10135000CF93DF93182F092FEB018B8181FD09C0FB
:101360001FEF0FEF812F902FDF91CF911F910F91E2
:10137000089582FF14C02E813F818C819D812817A2
:1013800039073CF4E881F981CF010196998388837C
:1013900010838E819F8101969F838E83E3CFE885A2
:1013A000F985812F0995892BA1F3DACFFA01AA27B4
:1013B000283051F1203181F1E8946F936E7F6E5F98
:1013C0007F4F8F4F9F4FAF4FB1E03ED0B4E03CD046
:1013D000670F781F891F9A1FA11D680F791F8A1F29
:1013E000911DA11D6A0F711D811D911DA11D20D090
:1013F00009F468943F912AE0269F11243019305D4A
:101400003193DEF6CF010895462F4770405D41933A
:10141000B3E00FD0C9F7F6CF462F4F70405D4A3387
:1014200018F0495D31FD4052419302D0A9F7EACF4F
:10143000B4E0A6959795879577956795BA95C9F77E
:1014400000976105710508959B01AC010A2E069471
:101450005795479537952795BA95C9F7620F731F2A
:0C146000841F951FA01D0895F894FFCF75
:10146C0001FFFFFFFF01FFFFFFFF00000002000074
:10147C0000009A060000000025640D0A00737465D4
:10148C00707065725F656E61626C655F6175746FBB
:10149C002829206572723A206E6F204953522073AE
:1014AC006C6F7420617661696C61626C650D0A0009
:00000001FF
