:100000000C9434000C9451000C9451000C94510049
:100010000C9451000C9451000C9451000C9451001C
:100020000C9451000C9451000C9451000C9451000C
:100030000C9451000C9451000C9451000C945100FC
:100040000C9451000C9451000C9451000C945100EC
:100050000C9451000C9451000C9451000C945100DC
:100060000C9451000C94510011241FBECFEFD8E026
:10007000DEBFCDBF11E0A0E0B1E0E6E1FAE002C0F2
:1000800005900D92AE36B107D9F721E0AEE6B1E0AA
:1000900001C01D92AA37B207E1F70E94B3010C9488
:1000A00009050C9400009C0190E080E08217930702
:1000B00009F4089545E04A95F1F700000196F6CF5E
:1000C000CF93DF93EC0141E068818B819C810E949A
:1000D0005D0140E06A818B819C810E945D0141E06D
:1000E00069818B819C81DF91CF910C945D010F938D
:1000F0001F93CF93DF93EC018B018D81698190E099
:100100000E949C01C8010E9453008D81698190E08A
:100110000E94A701C801DF91CF911F910F910C940C
:100120005300FC0140E06281838194810C945D0165
:10013000FC0141E06281838194810C945D01FC01AA
:10014000CB016130710529F48581608190E00C94C8
:100150009C01892B29F48581608190E00C94A70192
:100160000895CF93DF93EC0140E068818B819C81FF
:100170000E945D0140E069818B819C810E945D014C
:100180008D8140E06A8190E00E945D018F816A81EB
:1001900090E0DF91CF910C949C01CF92DF92EF928F
:1001A000FF920F931F93CF93DF9300D000D00F9255
:1001B000CDB7DEB78C01FC0180810E947A01E82E68
:1001C000C92EF80181810E947A01F82ED92EF801FA
:1001D0008681628190E00E948B012E2D4F2D61E07F
:1001E00068273C2D5D2D70E080E090E00F900F902F
:1001F0000F900F900F90DF91CF911F910F91FF9073
:10020000EF90DF90CF900895CF93C82F8A3019F4E4
:100210008DE00E9404018091C00085FFFCCFC09357
:10022000C600CF910895BC018091C00087FFFCCF2C
:100230008091C6000E9404018091C600089510922A
:10024000C50080E18093C400E0ECF0E08081826032
:100250008083808188618083E2ECF0E08081866029
:100260008083E4E7F1E080E191E09383828382E0A0
:1002700091E0918380830895CF93C82F8A3019F439
:100280008DE00E943C018091C00085FFFCCFC093AF
:10029000C600CF910895CF93DF93EC01899181112E
:1002A00003C0DF91CF9108950E943C01F7CF809168
:1002B000C00087FFFCCF87E00895FC0141110BC00F
:1002C000208181E090E001C0880F6A95EAF780956F
:1002D0008223808308954130E9F7808121E030E076
:1002E00001C0220F6A95EAF7822BF3CF87E880934B
:1002F0007A000895806480937C0080917A00806405
:1003000080937A0080917A0086FDFCCF80917800FE
:10031000909179000895FC01808121E030E002C0D5
:10032000220F331F6A95E2F790E02823392381E0FA
:10033000232B09F480E00895FC01808121E030E066
:1003400001C0220F6A95EAF7822B80830895FC0191
:10035000208181E090E001C0880F6A95EAF78095DE
:10036000822380830895CF93DF93CDB7DEB72D9797
:100370000FB6F894DEBF0FBECDBF0E941F010E94D2
:1003800076018AE28E8384E08B8389E28F838BE21D
:100390008887198291E09A8327E230E03D832C839D
:1003A000809373018AE290E09093720180937101CF
:1003B00087E080936E0186E08093700185E08093F2
:1003C0006F0141E060E084E290E00E945D018EE612
:1003D00091E00E94600085E291E09F938F938AE212
:1003E00091E09F938F930E9447028E010F5F1F4FF2
:1003F000C8010E94B1000F900F900F900F90FF2442
:10040000F394E02E712E8EE1A82E81E0B82E91E2B9
:10041000892E91E0992E25E4C22E21E0D22E8E2D38
:10042000972D0E94CD00162F29873A874B875C872E
:100430006D87062FC4011111C5019F938F938C8581
:100440008F938B858F938A858F9389858F93DF9286
:10045000CF920E9447020FB6F894DEBF0FBECDBF09
:100460001123E9F28EE691E0FF2071F00E949800DE
:1004700000E09FEF23ED80E3915020408040E1F7C2
:1004800000C00000F02ECBCF0E949100F2CFB0E070
:10049000A0E0EDE4F2E00C94E204FE0135966191F7
:1004A0007191AF0180917601909177010E945B027A
:1004B000E2E00C94FE04AFE0B0E0E1E6F2E00C9480
:1004C000D2047C013B018A01DC0117961C921E922A
:1004D000169713968C9181FFBEC19AE0292EFE01DA
:1004E00031964F01D70113969C91F30193FD8591AD
:1004F00093FF81913F01882309F444C1853239F487
:1005000093FD859193FF81913F01853229F4B701D5
:1005100090E00E944404E6CFB12C412C512CBFE165
:10052000B51538F08B3209F188F4803201F183324D
:1005300021F157FC3AC020ED280F2A3040F556FE35
:100540001FC0B29C200D1124B22E06C08D3291F036
:10055000803379F7689450F8F30193FD859193FF08
:1005600081913F018111DBCF20C0689451F86894DC
:1005700052F8F2CF689453F8EFCF689454F8ECCF68
:10058000429C200D1124422E689455F8E5CF8E32FE
:1005900029F456FCF7C0689456F8DECF8C3619F46F
:1005A000689457F8D9CF8836B9F2982F9F7D955423
:1005B0009330C0F08336A1F18337C1F1833509F060
:1005C0005BC0D801CD90DD908D016B2D70E056FCA5
:1005D00002C06FEF7FEFC6010E942E045C01689499
:1005E00057F80AC00C5F1F4FEFE3E983AA24A394D6
:1005F000B12C6401E89457F853FC04C04A141B045E
:1006000009F018F5342CA114B10431F5332009F4A4
:1006100069CFB70180E290E00E9444043A94F6CF9B
:10062000D8018C9189830E5F1F4FE0CFF801C190F4
:10063000D1908F016B2D70E056FC02C06FEF7FEF01
:10064000C6010E9439045C01D5CFB70180E290E079
:100650000E9444044A94D2CFF60157FC859157FE7C
:1006600081916F01B70190E00E94440431103A94E7
:10067000B1E0AB1AB108C7CF843619F0893609F05A
:1006800071C0F80157FE67C061917191819191919C
:100690008F01E52DEF76DE2E97FF09C090958095AE
:1006A000709561957F4F8F4F9F4F6894D7F82AE0E0
:1006B00030E0A4010E947404C82EC818AC2C5D2C34
:1006C000D6FE0CC0E89450F8CB1440F4D4FE05C01C
:1006D000D2FC03C05D2D5E7E552EAB2C54FE93C024
:1006E000FE01EC0DF11D8081803309F085C0652D80
:1006F000697E562E752D7870372E53FC93C050FEB0
:100700008DC0BC2CA41410F4B40CBA1854FE90C0C4
:10071000B70180E390E00E94440452FE07C088E7DE
:1007200051FC88E590E0B7010E944404CB1408F422
:100730008BC0CA94D12C8FEFC81AD80AC80CD91C08
:10074000D6018E916D01B70190E00E9444048C1493
:100750009D04B1F75BCF61917191072E000C880B5E
:10076000990B96CFD52CE894D4F82AE0853729F157
:10077000F52DF97FDF2E8037A1F058F48835A1F0F0
:100780008F36D1F0F701868197812F96E2E10C94A4
:10079000EE048837B9F7D4FE02C06894D2F820E19D
:1007A0000CC06894D4F8F7CF54FE03C02F2F2660F6
:1007B000D22E20E132E002C028E030E0F801D7FE7E
:1007C00015C041915191619171914C875D876E8700
:1007D0007F878F01A4016C857D858E859F850E9412
:1007E0007404C82EC818E894D7F868CF8191919105
:1007F000AC0170E060E0E9CF52FC02C0A3947ACF74
:10080000A394A39477CF852D867809F473CFF6CF80
:10081000B70180E290E00E944404A394A414C0F3C2
:10082000312C74CF342C3A18A41408F46FCFF8CFBD
:10083000852D867809F47ACF8BE251FE80E257FC51
:100840008DE2B70190E070CFB70180E390E00E94A5
:100850004404BA946BCF8FEF9FEF97CFFC010590C4
:10086000615070400110D8F7809590958E0F9F1FB2
:100870000895FC016150704001900110D8F78095F7
:1008800090958E0F9F1F08950F931F93CF93DF9323
:10089000182F092FEB018B8181FD09C01FEF0FEF8E
:1008A000812F902FDF91CF911F910F91089582FF9B
:1008B00014C02E813F818C819D81281739073CF41B
:1008C000E881F981CF0101969983888310838E8115
:1008D0009F8101969F838E83E3CFE885F985812FE1
:1008E0000995892BA1F3DACFFA01AA27283051F113
:1008F000203181F1E8946F936E7F6E5F7F4F8F4F51
:100900009F4FAF4FB1E03ED0B4E03CD0670F781FAF
:10091000891F9A1FA11D680F791F8A1F911DA11D94
:100920006A0F711D811D911DA11D20D009F46894CD
:100930003F912AE0269F11243019305D3193DEF675
:10094000CF010895462F4770405D4193B3E00FD02B
:10095000C9F7F6CF462F4F70405D4A3318F0495D16
:1009600031FD4052419302D0A9F7EACFB4E0A695F9
:100970009795879577956795BA95C9F7009761051B
:10098000710508959B01AC010A2E06945795479571
:1009900037952795BA95C9F7620F731F841F951F66
:1009A000A01D08952F923F924F925F926F927F9277
:1009B0008F929F92AF92BF92CF92DF92EF92FF926F
:1009C0000F931F93CF93DF93CDB7DEB7CA1BDB0B1B
:1009D0000FB6F894DEBF0FBECDBF09942A883988C0
:1009E00048885F846E847D848C849B84AA84B984C7
:1009F000C884DF80EE80FD800C811B81AA81B981D3
:100A0000CE0FD11D0FB6F894DEBF0FBECDBFED01E6
:060A10000895F894FFCFE9
:100A16007800000000010000000000001301000043
:100A260000000002000000000401000000004F6EFC
:100A3600004F6666004D61696E005B25735D3A2066
:100A46005374657070657220696E697469616C694A
:100A56007A65640A004A6F79737469636B203E2075
:100A66007B20583A20252D35642C20593A20252DF7
:0E0A760035642C2053573A202573207D0A004A
:00000001FF
